S00B00004C43442E7372656346
S11300000C942A000C943F000C943F000C943F0085
S11300100C943F000C943F000C943F000C943F0060
S11300200C943F000C943F000C943F000C943F0050
S11300300C943F000C943F000C943F000C943F0040
S11300400C943F000C943F000C943F000C943F0030
S11300500C943F0011241FBECFE5D8E0DEBFCDBF16
S113006010E0A0E6B0E0E0EEF7E002C005900D92EB
S1130070AA36B107D9F70E94F4010C94EE030C944C
S11300800000C39A82E08A95F1F700C0C3988FE616
S113009097E10197F1F700C000000895CF93C82FAE
S11300A0882314F4DF9A01C0DF98C6FF02C0DE9AE9
S11300B001C0DE98C5FF02C0DD9A01C0DD98C4FF0F
S11300C002C0DC9A01C0DC980E944100C3FF02C058
S11300D0DF9A01C0DF98C2FF02C0DE9A01C0DE9839
S11300E0C1FF02C0DD9A01C0DD98C0FF02C0DC9AE6
S11300F001C0DC980E944100CF910895C19AC29832
S11301000E944E000895C198C2980E944E0008951E
S1130110CF93DF93EC018881882331F021960E94EC
S11301207E0089918111FBCFDF91CF9108956150B9
S1130130E82FF0E0E15AFF4F8081860F0E94830090
S113014008958FE39CE90197F1F700C00000BA9A83
S1130150B99ABB9AD49AD59AD69AD79A83E30E942D
S1130160830082E30E94830088E20E9483008CE083
S11301700E94830081E00E9483000895CF93DF935F
S1130180EA010E949700CE010E948800DF91CF917E
S113019008958F929F92AF92BF92CF92DF92EF9287
S11301A0FF920F931F93CF93DF93CDB7DEB7982EB3
S11301B0862ECA01ADB6BEB6E22EF12C2DB73EB7DF
S11301C02E193F090FB6F8943EBF0FBE2DBF2F5F07
S11301D03F4F69014AE0B9010E94B9031E141F048C
S11301E05CF400E010E082E690E00E9488000F5F7B
S11301F01F4F0E151F05B9F7A601682D892D0E9402
S1130200BE000FB6F894BEBE0FBEADBEDF91CF9157
S11302101F910F91FF90EF90DF90CF90BF90AF9020
S11302209F908F900895EF92FF920F931F93CF9317
S1130230DF93CDB7DEB7EDB6FEB62DB73EB7261BBE
S113024031090FB6F8943EBF0FBE2DBF0DB71EB7D0
S11302500F5F1F4F4AE0B8010E94B903C8010E9412
S113026088000FB6F894FEBE0FBEEDBEDF91CF91AD
S11302701F910F91FF90EF9008954F925F926F92AC
S11302807F928F929F92AF92BF92CF92DF92EF9222
S1130290FF920F931F9349015A010E949700013066
S11302A0110519F10230110549F10330110579F1F5
S11302B004301105A9F105301105E1F106301105ED
S11302C009F442C00730110509F448C0083011058B
S11302D009F04FC00F2EF0E24F2EFCEB5F2EFEEB29
S11302E06F2EFCE47F2EF02D4CC00F2E412C512C90
S11302F0F0E26F2EF1E47F2EF02D43C00F2E412C3F
S1130300512CF8EC6F2EF2E47F2EF02D3AC00F2E14
S1130310412C512CFAE76F2EF4E47F2EF02D31C0DE
S11303200F2E412CF0E45F2EFCE16F2EF6E47F2EBD
S1130330F02D27C00F2E412CF0E55F2EF3EC6F2E2D
S1130340F7E47F2EF02D1DC00F2E412CF4E25F2E1A
S1130350F4E76F2EF9E47F2EF02D13C00F2EF0E892
S11303604F2EF6E95F2EF8E16F2EFBE47F2EF02D81
S113037008C00F2E412C512CF0E26F2EF1E47F2E99
S1130380F02DC501B4010E9488026B017C0165E077
S1130390C6010E9413018EE20E947E00B601DD0CAC
S11303A0880B990B0E94C0029B01AC01C501B401EA
S11303B00E941B02A30192010E944C030E94880226
S11303C0DC01CB0165E00E9413011F910F91FF90A6
S11303D0EF90DF90CF90BF90AF909F908F907F90E1
S11303E06F905F904F9008950E94A10044E650E002
S11303F061E070E081E090E00E94BE0002E010E065
S113040025EE30E54EED52E463E070E082E090E0EA
S11304100E943D0124E030E048E95AE367E070E0DF
S113042081E090E00E94C90087EA91E60197F1F724
S113043000C00000EFCF5058BB27AA270E94330208
S11304400C9412030E94040338F00E940B0320F062
S113045039F49F3F19F426F40C9401030EF4E0954B
S1130460E7FB0C94FB02E92F0E94230358F3BA170D
S1130470620773078407950720F079F4A6F50C94B6
S113048045030EF4E0950B2EBA2FA02D0B01B901F4
S113049090010C01CA01A0011124FF27591B99F0F6
S11304A0593F50F4503E68F11A16F040A22F232F02
S11304B0342F4427585FF3CF469537952795A79552
S11304C0F0405395C9F77EF41F16BA0B620B730BF9
S11304D0840BBAF09150A1F0FF0FBB1F661F771F6A
S11304E0881FC2F70EC0BA0F621F731F841F48F41F
S11304F0879577956795B795F7959E3F08F0B0CFA8
S11305009395880F08F09927EE0F9795879508958E
S11305100E948F026894B1110C94460308950E94BE
S11305202B0388F09F5798F0B92F9927B751B0F053
S1130530E1F0660F771F881F991F1AF0BA95C9F763
S113054014C0B13091F00E944503B1E008950C94B9
S11305504503672F782F8827B85F39F0B93FCCF36C
S1130560869577956795B395D9F73EF490958095E0
S1130570709561957F4F8F4F9F4F0895E89409C000
S113058097FB3EF490958095709561957F4F8F4FC2
S11305909F4F9923A9F0F92F96E9BB279395F695D8
S11305A0879577956795B795F111F8CFFAF4BB0F56
S11305B011F460FF1BC06F5F7F4F8F4F9F4F16C0BA
S11305C0882311F096E911C0772321F09EE8872F44
S11305D0762F05C0662371F096E8862F70E060E000
S11305E02AF09A95660F771F881FDAF7880F969579
S11305F0879597F9089597F99F6780E870E060E020
S113060008959FEF80EC089500240A9416161706A7
S113061018060906089500240A94121613061406EF
S113062005060895092E0394000C11F4882352F052
S1130630BB0F40F4BF2B11F460FF04C06F5F7F4F0A
S11306408F4F9F4F089557FD9058440F551F59F0F1
S11306505F3F71F04795880F97FB991F61F09F3FAB
S113066079F087950895121613061406551FF2CFD4
S11306704695F1DF08C0161617061806991FF1CF24
S113068086957105610508940895E894BB2766274B
S11306907727CB0197F908950E945F030C94120306
S11306A00E94040338F00E940B0320F0952311F0FC
S11306B00C94FB020C94010311240C9446030E9435
S11306C0230370F3959FC1F3950F50E0551F629F6C
S11306D0F001729FBB27F00DB11D639FAA27F00D97
S11306E0B11DAA1F649F6627B00DA11D661F829FBE
S11306F02227B00DA11D621F739FB00DA11D621FA3
S1130700839FA00D611D221F749F3327A00D611DBF
S1130710231F849F600D211D822F762F6A2F1124A1
S11307209F5750409AF0F1F088234AF0EE0FFF1FD4
S1130730BB1F661F771F881F91505040A9F79E3F2B
S1130740510580F00C94FB020C9446035F3FE4F3E4
S1130750983ED4F3869577956795B795F795E79581
S11307609F5FC1F7FE2B880F911D9695879597F98A
S11307700895BB274A3031F4992322F4BDE29095C1
S113078081959F4F0C94C503BB27FB015527AA27CE
S1130790880F991FAA1FA41710F0A41B839550510A
S11307A0B9F7A05DAA3308F0A95DA193009779F782
S11307B0B111B1931192CB010C94DE03DC01FC0165
S11307C0672F71917723E1F7329704C07C916D9381
S11307D070836291AE17BF07C8F30895F894FFCFF2
S10D07E080C0200061646330000053
S9030000FC
